{
  "_format": "hh-sol-artifact-1",
  "contractName": "Rider",
  "sourceName": "contracts/Rider.sol",
  "abi": [
    {
      "inputs": [],
      "stateMutability": "nonpayable",
      "type": "constructor"
    },
    {
      "anonymous": false,
      "inputs": [
        {
          "indexed": true,
          "internalType": "address",
          "name": "owner",
          "type": "address"
        },
        {
          "indexed": true,
          "internalType": "address",
          "name": "approved",
          "type": "address"
        },
        {
          "indexed": true,
          "internalType": "uint256",
          "name": "tokenId",
          "type": "uint256"
        }
      ],
      "name": "Approval",
      "type": "event"
    },
    {
      "anonymous": false,
      "inputs": [
        {
          "indexed": true,
          "internalType": "address",
          "name": "owner",
          "type": "address"
        },
        {
          "indexed": true,
          "internalType": "address",
          "name": "operator",
          "type": "address"
        },
        {
          "indexed": false,
          "internalType": "bool",
          "name": "approved",
          "type": "bool"
        }
      ],
      "name": "ApprovalForAll",
      "type": "event"
    },
    {
      "anonymous": false,
      "inputs": [
        {
          "indexed": true,
          "internalType": "address",
          "name": "from",
          "type": "address"
        },
        {
          "indexed": true,
          "internalType": "address",
          "name": "to",
          "type": "address"
        },
        {
          "indexed": true,
          "internalType": "uint256",
          "name": "tokenId",
          "type": "uint256"
        }
      ],
      "name": "Transfer",
      "type": "event"
    },
    {
      "inputs": [
        {
          "internalType": "address",
          "name": "to",
          "type": "address"
        },
        {
          "internalType": "uint256",
          "name": "tokenId",
          "type": "uint256"
        }
      ],
      "name": "approve",
      "outputs": [],
      "stateMutability": "nonpayable",
      "type": "function"
    },
    {
      "inputs": [
        {
          "internalType": "address",
          "name": "owner",
          "type": "address"
        }
      ],
      "name": "balanceOf",
      "outputs": [
        {
          "internalType": "uint256",
          "name": "",
          "type": "uint256"
        }
      ],
      "stateMutability": "view",
      "type": "function"
    },
    {
      "inputs": [
        {
          "internalType": "string",
          "name": "_driverUri",
          "type": "string"
        }
      ],
      "name": "createRider",
      "outputs": [
        {
          "internalType": "uint256",
          "name": "",
          "type": "uint256"
        }
      ],
      "stateMutability": "nonpayable",
      "type": "function"
    },
    {
      "inputs": [
        {
          "internalType": "uint256",
          "name": "tokenId",
          "type": "uint256"
        }
      ],
      "name": "getApproved",
      "outputs": [
        {
          "internalType": "address",
          "name": "",
          "type": "address"
        }
      ],
      "stateMutability": "view",
      "type": "function"
    },
    {
      "inputs": [
        {
          "internalType": "address",
          "name": "owner",
          "type": "address"
        },
        {
          "internalType": "address",
          "name": "operator",
          "type": "address"
        }
      ],
      "name": "isApprovedForAll",
      "outputs": [
        {
          "internalType": "bool",
          "name": "",
          "type": "bool"
        }
      ],
      "stateMutability": "view",
      "type": "function"
    },
    {
      "inputs": [],
      "name": "name",
      "outputs": [
        {
          "internalType": "string",
          "name": "",
          "type": "string"
        }
      ],
      "stateMutability": "view",
      "type": "function"
    },
    {
      "inputs": [
        {
          "internalType": "uint256",
          "name": "tokenId",
          "type": "uint256"
        }
      ],
      "name": "ownerOf",
      "outputs": [
        {
          "internalType": "address",
          "name": "",
          "type": "address"
        }
      ],
      "stateMutability": "view",
      "type": "function"
    },
    {
      "inputs": [
        {
          "internalType": "address",
          "name": "from",
          "type": "address"
        },
        {
          "internalType": "address",
          "name": "to",
          "type": "address"
        },
        {
          "internalType": "uint256",
          "name": "tokenId",
          "type": "uint256"
        }
      ],
      "name": "safeTransferFrom",
      "outputs": [],
      "stateMutability": "nonpayable",
      "type": "function"
    },
    {
      "inputs": [
        {
          "internalType": "address",
          "name": "from",
          "type": "address"
        },
        {
          "internalType": "address",
          "name": "to",
          "type": "address"
        },
        {
          "internalType": "uint256",
          "name": "tokenId",
          "type": "uint256"
        },
        {
          "internalType": "bytes",
          "name": "data",
          "type": "bytes"
        }
      ],
      "name": "safeTransferFrom",
      "outputs": [],
      "stateMutability": "nonpayable",
      "type": "function"
    },
    {
      "inputs": [
        {
          "internalType": "address",
          "name": "operator",
          "type": "address"
        },
        {
          "internalType": "bool",
          "name": "approved",
          "type": "bool"
        }
      ],
      "name": "setApprovalForAll",
      "outputs": [],
      "stateMutability": "nonpayable",
      "type": "function"
    },
    {
      "inputs": [
        {
          "internalType": "bytes4",
          "name": "interfaceId",
          "type": "bytes4"
        }
      ],
      "name": "supportsInterface",
      "outputs": [
        {
          "internalType": "bool",
          "name": "",
          "type": "bool"
        }
      ],
      "stateMutability": "view",
      "type": "function"
    },
    {
      "inputs": [],
      "name": "symbol",
      "outputs": [
        {
          "internalType": "string",
          "name": "",
          "type": "string"
        }
      ],
      "stateMutability": "view",
      "type": "function"
    },
    {
      "inputs": [
        {
          "internalType": "uint256",
          "name": "tokenId",
          "type": "uint256"
        }
      ],
      "name": "tokenURI",
      "outputs": [
        {
          "internalType": "string",
          "name": "",
          "type": "string"
        }
      ],
      "stateMutability": "view",
      "type": "function"
    },
    {
      "inputs": [
        {
          "internalType": "address",
          "name": "from",
          "type": "address"
        },
        {
          "internalType": "address",
          "name": "to",
          "type": "address"
        },
        {
          "internalType": "uint256",
          "name": "tokenId",
          "type": "uint256"
        }
      ],
      "name": "transferFrom",
      "outputs": [],
      "stateMutability": "nonpayable",
      "type": "function"
    }
  ],
  "bytecode": "0x60806040523480156200001157600080fd5b50604051806020016040528060008152506040518060200160405280600081525081600090805190602001906200004a9291906200006c565b508060019080519060200190620000639291906200006c565b50505062000181565b8280546200007a906200011c565b90600052602060002090601f0160209004810192826200009e5760008555620000ea565b82601f10620000b957805160ff1916838001178555620000ea565b82800160010185558215620000ea579182015b82811115620000e9578251825591602001919060010190620000cc565b5b509050620000f99190620000fd565b5090565b5b8082111562000118576000816000905550600101620000fe565b5090565b600060028204905060018216806200013557607f821691505b602082108114156200014c576200014b62000152565b5b50919050565b7f4e487b7100000000000000000000000000000000000000000000000000000000600052602260045260246000fd5b6125a180620001916000396000f3fe608060405234801561001057600080fd5b50600436106100ea5760003560e01c80636352211e1161008c578063a22cb46511610066578063a22cb4651461026f578063b88d4fde1461028b578063c87b56dd146102a7578063e985e9c5146102d7576100ea565b80636352211e146101f157806370a082311461022157806395d89b4114610251576100ea565b8063095ea7b3116100c8578063095ea7b31461016d57806323b872dd1461018957806342842e0e146101a55780635b17b4bc146101c1576100ea565b806301ffc9a7146100ef57806306fdde031461011f578063081812fc1461013d575b600080fd5b61010960048036038101906101049190611953565b610307565b6040516101169190611cc8565b60405180910390f35b6101276103e9565b6040516101349190611ce3565b60405180910390f35b610157600480360381019061015291906119e6565b61047b565b6040516101649190611c61565b60405180910390f35b61018760048036038101906101829190611917565b6104c1565b005b6101a3600480360381019061019e9190611811565b6105d9565b005b6101bf60048036038101906101ba9190611811565b610639565b005b6101db60048036038101906101d691906119a5565b610659565b6040516101e89190611e45565b60405180910390f35b61020b600480360381019061020691906119e6565b610686565b6040516102189190611c61565b60405180910390f35b61023b600480360381019061023691906117ac565b610738565b6040516102489190611e45565b60405180910390f35b6102596107f0565b6040516102669190611ce3565b60405180910390f35b610289600480360381019061028491906118db565b610882565b005b6102a560048036038101906102a09190611860565b610898565b005b6102c160048036038101906102bc91906119e6565b6108fa565b6040516102ce9190611ce3565b60405180910390f35b6102f160048036038101906102ec91906117d5565b610a0d565b6040516102fe9190611cc8565b60405180910390f35b60007f80ac58cd000000000000000000000000000000000000000000000000000000007bffffffffffffffffffffffffffffffffffffffffffffffffffffffff1916827bffffffffffffffffffffffffffffffffffffffffffffffffffffffff191614806103d257507f5b5e139f000000000000000000000000000000000000000000000000000000007bffffffffffffffffffffffffffffffffffffffffffffffffffffffff1916827bffffffffffffffffffffffffffffffffffffffffffffffffffffffff1916145b806103e257506103e182610aa1565b5b9050919050565b6060600080546103f89061209b565b80601f01602080910402602001604051908101604052809291908181526020018280546104249061209b565b80156104715780601f1061044657610100808354040283529160200191610471565b820191906000526020600020905b81548152906001019060200180831161045457829003601f168201915b5050505050905090565b600061048682610b0b565b6004600083815260200190815260200160002060009054906101000a900473ffffffffffffffffffffffffffffffffffffffff169050919050565b60006104cc82610686565b90508073ffffffffffffffffffffffffffffffffffffffff168373ffffffffffffffffffffffffffffffffffffffff16141561053d576040517f08c379a000000000000000000000000000000000000000000000000000000000815260040161053490611e05565b60405180910390fd5b8073ffffffffffffffffffffffffffffffffffffffff1661055c610b56565b73ffffffffffffffffffffffffffffffffffffffff16148061058b575061058a81610585610b56565b610a0d565b5b6105ca576040517f08c379a00000000000000000000000000000000000000000000000000000000081526004016105c190611dc5565b60405180910390fd5b6105d48383610b5e565b505050565b6105ea6105e4610b56565b82610c17565b610629576040517f08c379a000000000000000000000000000000000000000000000000000000000815260040161062090611e25565b60405180910390fd5b610634838383610cac565b505050565b61065483838360405180602001604052806000815250610898565b505050565b60006106656007610f13565b60006106716007610f29565b905061067d8184610f37565b80915050919050565b6000806002600084815260200190815260200160002060009054906101000a900473ffffffffffffffffffffffffffffffffffffffff169050600073ffffffffffffffffffffffffffffffffffffffff168173ffffffffffffffffffffffffffffffffffffffff16141561072f576040517f08c379a000000000000000000000000000000000000000000000000000000000815260040161072690611de5565b60405180910390fd5b80915050919050565b60008073ffffffffffffffffffffffffffffffffffffffff168273ffffffffffffffffffffffffffffffffffffffff1614156107a9576040517f08c379a00000000000000000000000000000000000000000000000000000000081526004016107a090611d85565b60405180910390fd5b600360008373ffffffffffffffffffffffffffffffffffffffff1673ffffffffffffffffffffffffffffffffffffffff168152602001908152602001600020549050919050565b6060600180546107ff9061209b565b80601f016020809104026020016040519081016040528092919081815260200182805461082b9061209b565b80156108785780601f1061084d57610100808354040283529160200191610878565b820191906000526020600020905b81548152906001019060200180831161085b57829003601f168201915b5050505050905090565b61089461088d610b56565b8383610fab565b5050565b6108a96108a3610b56565b83610c17565b6108e8576040517f08c379a00000000000000000000000000000000000000000000000000000000081526004016108df90611e25565b60405180910390fd5b6108f484848484611118565b50505050565b606061090582610b0b565b60006006600084815260200190815260200160002080546109259061209b565b80601f01602080910402602001604051908101604052809291908181526020018280546109519061209b565b801561099e5780601f106109735761010080835404028352916020019161099e565b820191906000526020600020905b81548152906001019060200180831161098157829003601f168201915b5050505050905060006109af611174565b90506000815114156109c5578192505050610a08565b6000825111156109fa5780826040516020016109e2929190611c3d565b60405160208183030381529060405292505050610a08565b610a038461118b565b925050505b919050565b6000600560008473ffffffffffffffffffffffffffffffffffffffff1673ffffffffffffffffffffffffffffffffffffffff16815260200190815260200160002060008373ffffffffffffffffffffffffffffffffffffffff1673ffffffffffffffffffffffffffffffffffffffff16815260200190815260200160002060009054906101000a900460ff16905092915050565b60007f01ffc9a7000000000000000000000000000000000000000000000000000000007bffffffffffffffffffffffffffffffffffffffffffffffffffffffff1916827bffffffffffffffffffffffffffffffffffffffffffffffffffffffff1916149050919050565b610b14816111f3565b610b53576040517f08c379a0000000000000000000000000000000000000000000000000000000008152600401610b4a90611de5565b60405180910390fd5b50565b600033905090565b816004600083815260200190815260200160002060006101000a81548173ffffffffffffffffffffffffffffffffffffffff021916908373ffffffffffffffffffffffffffffffffffffffff160217905550808273ffffffffffffffffffffffffffffffffffffffff16610bd183610686565b73ffffffffffffffffffffffffffffffffffffffff167f8c5be1e5ebec7d5bd14f71427d1e84f3dd0314c0f7b2291e5b200ac8c7c3b92560405160405180910390a45050565b600080610c2383610686565b90508073ffffffffffffffffffffffffffffffffffffffff168473ffffffffffffffffffffffffffffffffffffffff161480610c655750610c648185610a0d565b5b80610ca357508373ffffffffffffffffffffffffffffffffffffffff16610c8b8461047b565b73ffffffffffffffffffffffffffffffffffffffff16145b91505092915050565b8273ffffffffffffffffffffffffffffffffffffffff16610ccc82610686565b73ffffffffffffffffffffffffffffffffffffffff1614610d22576040517f08c379a0000000000000000000000000000000000000000000000000000000008152600401610d1990611d25565b60405180910390fd5b600073ffffffffffffffffffffffffffffffffffffffff168273ffffffffffffffffffffffffffffffffffffffff161415610d92576040517f08c379a0000000000000000000000000000000000000000000000000000000008152600401610d8990611d45565b60405180910390fd5b610d9d83838361125f565b610da8600082610b5e565b6001600360008573ffffffffffffffffffffffffffffffffffffffff1673ffffffffffffffffffffffffffffffffffffffff1681526020019081526020016000206000828254610df89190611fb1565b925050819055506001600360008473ffffffffffffffffffffffffffffffffffffffff1673ffffffffffffffffffffffffffffffffffffffff1681526020019081526020016000206000828254610e4f9190611f2a565b92505081905550816002600083815260200190815260200160002060006101000a81548173ffffffffffffffffffffffffffffffffffffffff021916908373ffffffffffffffffffffffffffffffffffffffff160217905550808273ffffffffffffffffffffffffffffffffffffffff168473ffffffffffffffffffffffffffffffffffffffff167fddf252ad1be2c89b69c2b068fc378daa952ba7f163c4a11628f55a4df523b3ef60405160405180910390a4610f0e838383611264565b505050565b6001816000016000828254019250508190555050565b600081600001549050919050565b610f40826111f3565b610f7f576040517f08c379a0000000000000000000000000000000000000000000000000000000008152600401610f7690611da5565b60405180910390fd5b80600660008481526020019081526020016000209080519060200190610fa69291906115d0565b505050565b8173ffffffffffffffffffffffffffffffffffffffff168373ffffffffffffffffffffffffffffffffffffffff16141561101a576040517f08c379a000000000000000000000000000000000000000000000000000000000815260040161101190611d65565b60405180910390fd5b80600560008573ffffffffffffffffffffffffffffffffffffffff1673ffffffffffffffffffffffffffffffffffffffff16815260200190815260200160002060008473ffffffffffffffffffffffffffffffffffffffff1673ffffffffffffffffffffffffffffffffffffffff16815260200190815260200160002060006101000a81548160ff0219169083151502179055508173ffffffffffffffffffffffffffffffffffffffff168373ffffffffffffffffffffffffffffffffffffffff167f17307eab39ab6107e8899845ad3d59bd9653f200f220920489ca2b5937696c318360405161110b9190611cc8565b60405180910390a3505050565b611123848484610cac565b61112f84848484611269565b61116e576040517f08c379a000000000000000000000000000000000000000000000000000000000815260040161116590611d05565b60405180910390fd5b50505050565b606060405180602001604052806000815250905090565b606061119682610b0b565b60006111a0611174565b905060008151116111c057604051806020016040528060008152506111eb565b806111ca84611400565b6040516020016111db929190611c3d565b6040516020818303038152906040525b915050919050565b60008073ffffffffffffffffffffffffffffffffffffffff166002600084815260200190815260200160002060009054906101000a900473ffffffffffffffffffffffffffffffffffffffff1673ffffffffffffffffffffffffffffffffffffffff1614159050919050565b505050565b505050565b600061128a8473ffffffffffffffffffffffffffffffffffffffff166115ad565b156113f3578373ffffffffffffffffffffffffffffffffffffffff1663150b7a026112b3610b56565b8786866040518563ffffffff1660e01b81526004016112d59493929190611c7c565b602060405180830381600087803b1580156112ef57600080fd5b505af192505050801561132057506040513d601f19601f8201168201806040525081019061131d919061197c565b60015b6113a3573d8060008114611350576040519150601f19603f3d011682016040523d82523d6000602084013e611355565b606091505b5060008151141561139b576040517f08c379a000000000000000000000000000000000000000000000000000000000815260040161139290611d05565b60405180910390fd5b805181602001fd5b63150b7a0260e01b7bffffffffffffffffffffffffffffffffffffffffffffffffffffffff1916817bffffffffffffffffffffffffffffffffffffffffffffffffffffffff1916149150506113f8565b600190505b949350505050565b60606000821415611448576040518060400160405280600181526020017f300000000000000000000000000000000000000000000000000000000000000081525090506115a8565b600082905060005b6000821461147a578080611463906120fe565b915050600a826114739190611f80565b9150611450565b60008167ffffffffffffffff8111156114bc577f4e487b7100000000000000000000000000000000000000000000000000000000600052604160045260246000fd5b6040519080825280601f01601f1916602001820160405280156114ee5781602001600182028036833780820191505090505b5090505b600085146115a1576001826115079190611fb1565b9150600a856115169190612147565b60306115229190611f2a565b60f81b81838151811061155e577f4e487b7100000000000000000000000000000000000000000000000000000000600052603260045260246000fd5b60200101907effffffffffffffffffffffffffffffffffffffffffffffffffffffffffffff1916908160001a905350600a8561159a9190611f80565b94506114f2565b8093505050505b919050565b6000808273ffffffffffffffffffffffffffffffffffffffff163b119050919050565b8280546115dc9061209b565b90600052602060002090601f0160209004810192826115fe5760008555611645565b82601f1061161757805160ff1916838001178555611645565b82800160010185558215611645579182015b82811115611644578251825591602001919060010190611629565b5b5090506116529190611656565b5090565b5b8082111561166f576000816000905550600101611657565b5090565b600061168661168184611e85565b611e60565b90508281526020810184848401111561169e57600080fd5b6116a9848285612059565b509392505050565b60006116c46116bf84611eb6565b611e60565b9050828152602081018484840111156116dc57600080fd5b6116e7848285612059565b509392505050565b6000813590506116fe8161250f565b92915050565b60008135905061171381612526565b92915050565b6000813590506117288161253d565b92915050565b60008151905061173d8161253d565b92915050565b600082601f83011261175457600080fd5b8135611764848260208601611673565b91505092915050565b600082601f83011261177e57600080fd5b813561178e8482602086016116b1565b91505092915050565b6000813590506117a681612554565b92915050565b6000602082840312156117be57600080fd5b60006117cc848285016116ef565b91505092915050565b600080604083850312156117e857600080fd5b60006117f6858286016116ef565b9250506020611807858286016116ef565b9150509250929050565b60008060006060848603121561182657600080fd5b6000611834868287016116ef565b9350506020611845868287016116ef565b925050604061185686828701611797565b9150509250925092565b6000806000806080858703121561187657600080fd5b6000611884878288016116ef565b9450506020611895878288016116ef565b93505060406118a687828801611797565b925050606085013567ffffffffffffffff8111156118c357600080fd5b6118cf87828801611743565b91505092959194509250565b600080604083850312156118ee57600080fd5b60006118fc858286016116ef565b925050602061190d85828601611704565b9150509250929050565b6000806040838503121561192a57600080fd5b6000611938858286016116ef565b925050602061194985828601611797565b9150509250929050565b60006020828403121561196557600080fd5b600061197384828501611719565b91505092915050565b60006020828403121561198e57600080fd5b600061199c8482850161172e565b91505092915050565b6000602082840312156119b757600080fd5b600082013567ffffffffffffffff8111156119d157600080fd5b6119dd8482850161176d565b91505092915050565b6000602082840312156119f857600080fd5b6000611a0684828501611797565b91505092915050565b611a1881611fe5565b82525050565b611a2781611ff7565b82525050565b6000611a3882611ee7565b611a428185611efd565b9350611a52818560208601612068565b611a5b81612234565b840191505092915050565b6000611a7182611ef2565b611a7b8185611f0e565b9350611a8b818560208601612068565b611a9481612234565b840191505092915050565b6000611aaa82611ef2565b611ab48185611f1f565b9350611ac4818560208601612068565b80840191505092915050565b6000611add603283611f0e565b9150611ae882612245565b604082019050919050565b6000611b00602583611f0e565b9150611b0b82612294565b604082019050919050565b6000611b23602483611f0e565b9150611b2e826122e3565b604082019050919050565b6000611b46601983611f0e565b9150611b5182612332565b602082019050919050565b6000611b69602983611f0e565b9150611b748261235b565b604082019050919050565b6000611b8c602e83611f0e565b9150611b97826123aa565b604082019050919050565b6000611baf603e83611f0e565b9150611bba826123f9565b604082019050919050565b6000611bd2601883611f0e565b9150611bdd82612448565b602082019050919050565b6000611bf5602183611f0e565b9150611c0082612471565b604082019050919050565b6000611c18602e83611f0e565b9150611c23826124c0565b604082019050919050565b611c378161204f565b82525050565b6000611c498285611a9f565b9150611c558284611a9f565b91508190509392505050565b6000602082019050611c766000830184611a0f565b92915050565b6000608082019050611c916000830187611a0f565b611c9e6020830186611a0f565b611cab6040830185611c2e565b8181036060830152611cbd8184611a2d565b905095945050505050565b6000602082019050611cdd6000830184611a1e565b92915050565b60006020820190508181036000830152611cfd8184611a66565b905092915050565b60006020820190508181036000830152611d1e81611ad0565b9050919050565b60006020820190508181036000830152611d3e81611af3565b9050919050565b60006020820190508181036000830152611d5e81611b16565b9050919050565b60006020820190508181036000830152611d7e81611b39565b9050919050565b60006020820190508181036000830152611d9e81611b5c565b9050919050565b60006020820190508181036000830152611dbe81611b7f565b9050919050565b60006020820190508181036000830152611dde81611ba2565b9050919050565b60006020820190508181036000830152611dfe81611bc5565b9050919050565b60006020820190508181036000830152611e1e81611be8565b9050919050565b60006020820190508181036000830152611e3e81611c0b565b9050919050565b6000602082019050611e5a6000830184611c2e565b92915050565b6000611e6a611e7b565b9050611e7682826120cd565b919050565b6000604051905090565b600067ffffffffffffffff821115611ea057611e9f612205565b5b611ea982612234565b9050602081019050919050565b600067ffffffffffffffff821115611ed157611ed0612205565b5b611eda82612234565b9050602081019050919050565b600081519050919050565b600081519050919050565b600082825260208201905092915050565b600082825260208201905092915050565b600081905092915050565b6000611f358261204f565b9150611f408361204f565b9250827fffffffffffffffffffffffffffffffffffffffffffffffffffffffffffffffff03821115611f7557611f74612178565b5b828201905092915050565b6000611f8b8261204f565b9150611f968361204f565b925082611fa657611fa56121a7565b5b828204905092915050565b6000611fbc8261204f565b9150611fc78361204f565b925082821015611fda57611fd9612178565b5b828203905092915050565b6000611ff08261202f565b9050919050565b60008115159050919050565b60007fffffffff0000000000000000000000000000000000000000000000000000000082169050919050565b600073ffffffffffffffffffffffffffffffffffffffff82169050919050565b6000819050919050565b82818337600083830152505050565b60005b8381101561208657808201518184015260208101905061206b565b83811115612095576000848401525b50505050565b600060028204905060018216806120b357607f821691505b602082108114156120c7576120c66121d6565b5b50919050565b6120d682612234565b810181811067ffffffffffffffff821117156120f5576120f4612205565b5b80604052505050565b60006121098261204f565b91507fffffffffffffffffffffffffffffffffffffffffffffffffffffffffffffffff82141561213c5761213b612178565b5b600182019050919050565b60006121528261204f565b915061215d8361204f565b92508261216d5761216c6121a7565b5b828206905092915050565b7f4e487b7100000000000000000000000000000000000000000000000000000000600052601160045260246000fd5b7f4e487b7100000000000000000000000000000000000000000000000000000000600052601260045260246000fd5b7f4e487b7100000000000000000000000000000000000000000000000000000000600052602260045260246000fd5b7f4e487b7100000000000000000000000000000000000000000000000000000000600052604160045260246000fd5b6000601f19601f8301169050919050565b7f4552433732313a207472616e7366657220746f206e6f6e20455243373231526560008201527f63656976657220696d706c656d656e7465720000000000000000000000000000602082015250565b7f4552433732313a207472616e736665722066726f6d20696e636f72726563742060008201527f6f776e6572000000000000000000000000000000000000000000000000000000602082015250565b7f4552433732313a207472616e7366657220746f20746865207a65726f2061646460008201527f7265737300000000000000000000000000000000000000000000000000000000602082015250565b7f4552433732313a20617070726f766520746f2063616c6c657200000000000000600082015250565b7f4552433732313a2061646472657373207a65726f206973206e6f74206120766160008201527f6c6964206f776e65720000000000000000000000000000000000000000000000602082015250565b7f45524337323155524953746f726167653a2055524920736574206f66206e6f6e60008201527f6578697374656e7420746f6b656e000000000000000000000000000000000000602082015250565b7f4552433732313a20617070726f76652063616c6c6572206973206e6f7420746f60008201527f6b656e206f776e6572206e6f7220617070726f76656420666f7220616c6c0000602082015250565b7f4552433732313a20696e76616c696420746f6b656e2049440000000000000000600082015250565b7f4552433732313a20617070726f76616c20746f2063757272656e74206f776e6560008201527f7200000000000000000000000000000000000000000000000000000000000000602082015250565b7f4552433732313a2063616c6c6572206973206e6f7420746f6b656e206f776e6560008201527f72206e6f7220617070726f766564000000000000000000000000000000000000602082015250565b61251881611fe5565b811461252357600080fd5b50565b61252f81611ff7565b811461253a57600080fd5b50565b61254681612003565b811461255157600080fd5b50565b61255d8161204f565b811461256857600080fd5b5056fea26469706673582212206c58362b0740ad66823369628eb5d1e2533033cb78a0b482c922a9f612a2824364736f6c63430008040033",
  "linkReferences": {},
  "deployedLinkReferences": {}
}