{
  "_format": "hh-sol-artifact-1",
  "contractName": "RideSharing",
  "sourceName": "contracts/Ridesharing.sol",
  "abi": [
    {
      "anonymous": false,
      "inputs": [
        {
          "indexed": false,
          "internalType": "string",
          "name": "name",
          "type": "string"
        },
        {
          "indexed": false,
          "internalType": "string",
          "name": "nic",
          "type": "string"
        },
        {
          "indexed": false,
          "internalType": "string",
          "name": "regNum",
          "type": "string"
        }
      ],
      "name": "registered",
      "type": "event"
    },
    {
      "inputs": [
        {
          "internalType": "uint256",
          "name": "",
          "type": "uint256"
        }
      ],
      "name": "RideIDTodriverId",
      "outputs": [
        {
          "internalType": "uint256",
          "name": "",
          "type": "uint256"
        }
      ],
      "stateMutability": "view",
      "type": "function"
    },
    {
      "inputs": [
        {
          "internalType": "address",
          "name": "",
          "type": "address"
        }
      ],
      "name": "addressToDriver",
      "outputs": [
        {
          "internalType": "uint256",
          "name": "driverURIId",
          "type": "uint256"
        },
        {
          "internalType": "uint256",
          "name": "Id",
          "type": "uint256"
        },
        {
          "internalType": "string",
          "name": "name",
          "type": "string"
        },
        {
          "internalType": "string",
          "name": "nic",
          "type": "string"
        },
        {
          "internalType": "string",
          "name": "email",
          "type": "string"
        },
        {
          "internalType": "string",
          "name": "cellno",
          "type": "string"
        },
        {
          "internalType": "bool",
          "name": "isRegistered",
          "type": "bool"
        },
        {
          "components": [
            {
              "internalType": "string",
              "name": "regNum",
              "type": "string"
            },
            {
              "internalType": "string",
              "name": "modelName",
              "type": "string"
            }
          ],
          "internalType": "struct RideSharing.Car",
          "name": "car",
          "type": "tuple"
        }
      ],
      "stateMutability": "view",
      "type": "function"
    },
    {
      "inputs": [
        {
          "internalType": "address",
          "name": "",
          "type": "address"
        }
      ],
      "name": "addressToRider",
      "outputs": [
        {
          "internalType": "uint256",
          "name": "driverURIId",
          "type": "uint256"
        },
        {
          "internalType": "uint256",
          "name": "Id",
          "type": "uint256"
        },
        {
          "internalType": "string",
          "name": "name",
          "type": "string"
        },
        {
          "internalType": "string",
          "name": "email",
          "type": "string"
        },
        {
          "internalType": "string",
          "name": "cellno",
          "type": "string"
        }
      ],
      "stateMutability": "view",
      "type": "function"
    },
    {
      "inputs": [
        {
          "internalType": "string",
          "name": "startPoint",
          "type": "string"
        },
        {
          "internalType": "string",
          "name": "destination",
          "type": "string"
        }
      ],
      "name": "createRide",
      "outputs": [],
      "stateMutability": "nonpayable",
      "type": "function"
    },
    {
      "inputs": [
        {
          "internalType": "address",
          "name": "",
          "type": "address"
        }
      ],
      "name": "driverIsRegistered",
      "outputs": [
        {
          "internalType": "bool",
          "name": "",
          "type": "bool"
        }
      ],
      "stateMutability": "view",
      "type": "function"
    },
    {
      "inputs": [
        {
          "internalType": "address",
          "name": "_driver",
          "type": "address"
        }
      ],
      "name": "getDriverByAddress",
      "outputs": [
        {
          "internalType": "uint256",
          "name": "",
          "type": "uint256"
        }
      ],
      "stateMutability": "view",
      "type": "function"
    },
    {
      "inputs": [
        {
          "internalType": "uint256",
          "name": "rideId",
          "type": "uint256"
        }
      ],
      "name": "getRidersByRideId",
      "outputs": [
        {
          "components": [
            {
              "internalType": "uint256",
              "name": "driverURIId",
              "type": "uint256"
            },
            {
              "internalType": "uint256",
              "name": "Id",
              "type": "uint256"
            },
            {
              "internalType": "string",
              "name": "name",
              "type": "string"
            },
            {
              "internalType": "string",
              "name": "email",
              "type": "string"
            },
            {
              "internalType": "string",
              "name": "cellno",
              "type": "string"
            }
          ],
          "internalType": "struct RideSharing.Rider[]",
          "name": "",
          "type": "tuple[]"
        }
      ],
      "stateMutability": "view",
      "type": "function"
    },
    {
      "inputs": [
        {
          "internalType": "uint256",
          "name": "",
          "type": "uint256"
        }
      ],
      "name": "idToDriver",
      "outputs": [
        {
          "internalType": "uint256",
          "name": "driverURIId",
          "type": "uint256"
        },
        {
          "internalType": "uint256",
          "name": "Id",
          "type": "uint256"
        },
        {
          "internalType": "string",
          "name": "name",
          "type": "string"
        },
        {
          "internalType": "string",
          "name": "nic",
          "type": "string"
        },
        {
          "internalType": "string",
          "name": "email",
          "type": "string"
        },
        {
          "internalType": "string",
          "name": "cellno",
          "type": "string"
        },
        {
          "internalType": "bool",
          "name": "isRegistered",
          "type": "bool"
        },
        {
          "components": [
            {
              "internalType": "string",
              "name": "regNum",
              "type": "string"
            },
            {
              "internalType": "string",
              "name": "modelName",
              "type": "string"
            }
          ],
          "internalType": "struct RideSharing.Car",
          "name": "car",
          "type": "tuple"
        }
      ],
      "stateMutability": "view",
      "type": "function"
    },
    {
      "inputs": [
        {
          "internalType": "uint256",
          "name": "",
          "type": "uint256"
        }
      ],
      "name": "idToRide",
      "outputs": [
        {
          "internalType": "uint256",
          "name": "rideId",
          "type": "uint256"
        },
        {
          "internalType": "address",
          "name": "creator",
          "type": "address"
        },
        {
          "internalType": "string",
          "name": "startPoint",
          "type": "string"
        },
        {
          "internalType": "string",
          "name": "destination",
          "type": "string"
        }
      ],
      "stateMutability": "view",
      "type": "function"
    },
    {
      "inputs": [
        {
          "internalType": "uint256",
          "name": "",
          "type": "uint256"
        }
      ],
      "name": "idToRider",
      "outputs": [
        {
          "internalType": "uint256",
          "name": "driverURIId",
          "type": "uint256"
        },
        {
          "internalType": "uint256",
          "name": "Id",
          "type": "uint256"
        },
        {
          "internalType": "string",
          "name": "name",
          "type": "string"
        },
        {
          "internalType": "string",
          "name": "email",
          "type": "string"
        },
        {
          "internalType": "string",
          "name": "cellno",
          "type": "string"
        }
      ],
      "stateMutability": "view",
      "type": "function"
    },
    {
      "inputs": [
        {
          "internalType": "uint256",
          "name": "rideId",
          "type": "uint256"
        },
        {
          "internalType": "uint256",
          "name": "riderId",
          "type": "uint256"
        }
      ],
      "name": "joinRide",
      "outputs": [],
      "stateMutability": "nonpayable",
      "type": "function"
    },
    {
      "inputs": [
        {
          "internalType": "uint256",
          "name": "driverURI_Id",
          "type": "uint256"
        },
        {
          "internalType": "string",
          "name": "_name",
          "type": "string"
        },
        {
          "internalType": "string",
          "name": "_nic",
          "type": "string"
        },
        {
          "internalType": "string",
          "name": "_email",
          "type": "string"
        },
        {
          "internalType": "string",
          "name": "_cellno",
          "type": "string"
        },
        {
          "internalType": "string",
          "name": "_regNum",
          "type": "string"
        },
        {
          "internalType": "string",
          "name": "_modelName",
          "type": "string"
        }
      ],
      "name": "registerForDriver",
      "outputs": [],
      "stateMutability": "nonpayable",
      "type": "function"
    },
    {
      "inputs": [
        {
          "internalType": "uint256",
          "name": "riderURI_Id",
          "type": "uint256"
        },
        {
          "internalType": "string",
          "name": "_name",
          "type": "string"
        },
        {
          "internalType": "string",
          "name": "_email",
          "type": "string"
        },
        {
          "internalType": "string",
          "name": "_cellno",
          "type": "string"
        }
      ],
      "name": "registerForRider",
      "outputs": [],
      "stateMutability": "nonpayable",
      "type": "function"
    },
    {
      "inputs": [
        {
          "internalType": "uint256",
          "name": "",
          "type": "uint256"
        }
      ],
      "name": "riderIdtorideId",
      "outputs": [
        {
          "internalType": "uint256",
          "name": "",
          "type": "uint256"
        }
      ],
      "stateMutability": "view",
      "type": "function"
    },
    {
      "inputs": [
        {
          "internalType": "address",
          "name": "",
          "type": "address"
        }
      ],
      "name": "riderIsRegistered",
      "outputs": [
        {
          "internalType": "bool",
          "name": "",
          "type": "bool"
        }
      ],
      "stateMutability": "view",
      "type": "function"
    }
  ],
  "bytecode": "0x608060405234801561001057600080fd5b5061297c806100206000396000f3fe608060405234801561001057600080fd5b50600436106100f55760003560e01c8063bbe3803a11610097578063e656b57811610066578063e656b578146102f0578063e91f8df514610324578063ec7a522014610340578063f2c5c2f114610377576100f5565b8063bbe3803a14610229578063c092e39914610259578063e147d78714610290578063e563eada146102c0576100f5565b80636c04dc22116100d35780636c04dc22146101915780639c1b9ee8146101ad5780639e473a47146101c9578063a9b6bbde146101f9576100f5565b806305c41e0e146100fa5780631840110a1461012e57806366ec451c1461015e575b600080fd5b610114600480360381019061010f9190612030565b610393565b60405161012595949392919061257f565b60405180910390f35b61014860048036038101906101439190612030565b610561565b6040516101559190612511565b60405180910390f35b61017860048036038101906101739190612030565b610579565b604051610188949392919061252c565b60405180910390f35b6101ab60048036038101906101a69190612104565b6106d9565b005b6101c760048036038101906101c29190611fc4565b610a27565b005b6101e360048036038101906101de9190611f9b565b610ba5565b6040516101f091906124aa565b60405180910390f35b610213600480360381019061020e9190611f9b565b610bc5565b6040516102209190612511565b60405180910390f35b610243600480360381019061023e9190612030565b610c16565b6040516102509190612511565b60405180910390f35b610273600480360381019061026e9190611f9b565b610c2e565b6040516102879897969594939291906125e7565b60405180910390f35b6102aa60048036038101906102a59190611f9b565b610fd1565b6040516102b791906124aa565b60405180910390f35b6102da60048036038101906102d59190612030565b610ff1565b6040516102e79190612488565b60405180910390f35b61030a60048036038101906103059190611f9b565b61133e565b60405161031b95949392919061257f565b60405180910390f35b61033e60048036038101906103399190612059565b61150c565b005b61035a60048036038101906103559190612030565b611723565b60405161036e9897969594939291906125e7565b60405180910390f35b610391600480360381019061038c9190612232565b611ac6565b005b60066020528060005260406000206000915090508060000154908060010154908060020180546103c2906127ce565b80601f01602080910402602001604051908101604052809291908181526020018280546103ee906127ce565b801561043b5780601f106104105761010080835404028352916020019161043b565b820191906000526020600020905b81548152906001019060200180831161041e57829003601f168201915b505050505090806003018054610450906127ce565b80601f016020809104026020016040519081016040528092919081815260200182805461047c906127ce565b80156104c95780601f1061049e576101008083540402835291602001916104c9565b820191906000526020600020905b8154815290600101906020018083116104ac57829003601f168201915b5050505050908060040180546104de906127ce565b80601f016020809104026020016040519081016040528092919081815260200182805461050a906127ce565b80156105575780601f1061052c57610100808354040283529160200191610557565b820191906000526020600020905b81548152906001019060200180831161053a57829003601f168201915b5050505050905085565b600b6020528060005260406000206000915090505481565b600a6020528060005260406000206000915090508060000154908060010160009054906101000a900473ffffffffffffffffffffffffffffffffffffffff16908060020180546105c8906127ce565b80601f01602080910402602001604051908101604052809291908181526020018280546105f4906127ce565b80156106415780601f1061061657610100808354040283529160200191610641565b820191906000526020600020905b81548152906001019060200180831161062457829003601f168201915b505050505090806003018054610656906127ce565b80601f0160208091040260200160405190810160405280929190818152602001828054610682906127ce565b80156106cf5780601f106106a4576101008083540402835291602001916106cf565b820191906000526020600020905b8154815290600101906020018083116106b257829003601f168201915b5050505050905084565b600060405180604001604052808481526020018381525090506106fc6000611d51565b60006107086000611d67565b905060006040518061010001604052808b81526020018381526020018a81526020018981526020018881526020018781526020016001151581526020018481525090506001600360003373ffffffffffffffffffffffffffffffffffffffff1673ffffffffffffffffffffffffffffffffffffffff16815260200190815260200160002060006101000a81548160ff0219169083151502179055508060056000848152602001908152602001600020600082015181600001556020820151816001015560408201518160020190805190602001906107e7929190611e37565b506060820151816003019080519060200190610804929190611e37565b506080820151816004019080519060200190610821929190611e37565b5060a082015181600501908051906020019061083e929190611e37565b5060c08201518160060160006101000a81548160ff02191690831515021790555060e0820151816007016000820151816000019080519060200190610884929190611e37565b5060208201518160010190805190602001906108a1929190611e37565b50505090505080600760003373ffffffffffffffffffffffffffffffffffffffff1673ffffffffffffffffffffffffffffffffffffffff16815260200190815260200160002060008201518160000155602082015181600101556040820151816002019080519060200190610917929190611e37565b506060820151816003019080519060200190610934929190611e37565b506080820151816004019080519060200190610951929190611e37565b5060a082015181600501908051906020019061096e929190611e37565b5060c08201518160060160006101000a81548160ff02191690831515021790555060e08201518160070160008201518160000190805190602001906109b4929190611e37565b5060208201518160010190805190602001906109d1929190611e37565b5050509050506109e033611d75565b7f4f19fa79ec7c3c0f1adeabf1edb350ccfb28c722e55bcb2be54b16d81a337b11898987604051610a13939291906124c5565b60405180910390a150505050505050505050565b60011515600360003373ffffffffffffffffffffffffffffffffffffffff1673ffffffffffffffffffffffffffffffffffffffff16815260200190815260200160002060009054906101000a900460ff16151514610a8457600080fd5b6000610a8f33610bc5565b9050610a9b6001611d51565b6000610aa76001611d67565b9050600060405180608001604052808381526020013373ffffffffffffffffffffffffffffffffffffffff16815260200186815260200185815250905080600a60008481526020019081526020016000206000820151816000015560208201518160010160006101000a81548173ffffffffffffffffffffffffffffffffffffffff021916908373ffffffffffffffffffffffffffffffffffffffff1602179055506040820151816002019080519060200190610b65929190611e37565b506060820151816003019080519060200190610b82929190611e37565b509050508260096000848152602001908152602001600020819055505050505050565b60036020528060005260406000206000915054906101000a900460ff1681565b600080600760008473ffffffffffffffffffffffffffffffffffffffff1673ffffffffffffffffffffffffffffffffffffffff16815260200190815260200160002090508060010154915050919050565b60096020528060005260406000206000915090505481565b6007602052806000526040600020600091509050806000015490806001015490806002018054610c5d906127ce565b80601f0160208091040260200160405190810160405280929190818152602001828054610c89906127ce565b8015610cd65780601f10610cab57610100808354040283529160200191610cd6565b820191906000526020600020905b815481529060010190602001808311610cb957829003601f168201915b505050505090806003018054610ceb906127ce565b80601f0160208091040260200160405190810160405280929190818152602001828054610d17906127ce565b8015610d645780601f10610d3957610100808354040283529160200191610d64565b820191906000526020600020905b815481529060010190602001808311610d4757829003601f168201915b505050505090806004018054610d79906127ce565b80601f0160208091040260200160405190810160405280929190818152602001828054610da5906127ce565b8015610df25780601f10610dc757610100808354040283529160200191610df2565b820191906000526020600020905b815481529060010190602001808311610dd557829003601f168201915b505050505090806005018054610e07906127ce565b80601f0160208091040260200160405190810160405280929190818152602001828054610e33906127ce565b8015610e805780601f10610e5557610100808354040283529160200191610e80565b820191906000526020600020905b815481529060010190602001808311610e6357829003601f168201915b5050505050908060060160009054906101000a900460ff169080600701604051806040016040529081600082018054610eb8906127ce565b80601f0160208091040260200160405190810160405280929190818152602001828054610ee4906127ce565b8015610f315780601f10610f0657610100808354040283529160200191610f31565b820191906000526020600020905b815481529060010190602001808311610f1457829003601f168201915b50505050508152602001600182018054610f4a906127ce565b80601f0160208091040260200160405190810160405280929190818152602001828054610f76906127ce565b8015610fc35780601f10610f9857610100808354040283529160200191610fc3565b820191906000526020600020905b815481529060010190602001808311610fa657829003601f168201915b505050505081525050905088565b60046020528060005260406000206000915054906101000a900460ff1681565b60606000806000600190505b6110076001611d67565b811161104a5784600b600083815260200190815260200160002054141561103757828061103390612831565b9350505b808061104290612831565b915050610ffd565b5060008267ffffffffffffffff81111561108d577f4e487b7100000000000000000000000000000000000000000000000000000000600052604160045260246000fd5b6040519080825280602002602001820160405280156110c657816020015b6110b3611ebd565b8152602001906001900390816110ab5790505b5090506000600190505b8381116113325785600b600083815260200190815260200160002054141561131f57600c60008281526020019081526020016000206040518060a00160405290816000820154815260200160018201548152602001600282018054611134906127ce565b80601f0160208091040260200160405190810160405280929190818152602001828054611160906127ce565b80156111ad5780601f10611182576101008083540402835291602001916111ad565b820191906000526020600020905b81548152906001019060200180831161119057829003601f168201915b505050505081526020016003820180546111c6906127ce565b80601f01602080910402602001604051908101604052809291908181526020018280546111f2906127ce565b801561123f5780601f106112145761010080835404028352916020019161123f565b820191906000526020600020905b81548152906001019060200180831161122257829003601f168201915b50505050508152602001600482018054611258906127ce565b80601f0160208091040260200160405190810160405280929190818152602001828054611284906127ce565b80156112d15780601f106112a6576101008083540402835291602001916112d1565b820191906000526020600020905b8154815290600101906020018083116112b457829003601f168201915b505050505081525050828481518110611313577f4e487b7100000000000000000000000000000000000000000000000000000000600052603260045260246000fd5b60200260200101819052505b808061132a90612831565b9150506110d0565b50809350505050919050565b600860205280600052604060002060009150905080600001549080600101549080600201805461136d906127ce565b80601f0160208091040260200160405190810160405280929190818152602001828054611399906127ce565b80156113e65780601f106113bb576101008083540402835291602001916113e6565b820191906000526020600020905b8154815290600101906020018083116113c957829003601f168201915b5050505050908060030180546113fb906127ce565b80601f0160208091040260200160405190810160405280929190818152602001828054611427906127ce565b80156114745780601f1061144957610100808354040283529160200191611474565b820191906000526020600020905b81548152906001019060200180831161145757829003601f168201915b505050505090806004018054611489906127ce565b80601f01602080910402602001604051908101604052809291908181526020018280546114b5906127ce565b80156115025780601f106114d757610100808354040283529160200191611502565b820191906000526020600020905b8154815290600101906020018083116114e557829003601f168201915b5050505050905085565b6115166002611d51565b60006115226002611d67565b905060006040518060a001604052808781526020018381526020018681526020018581526020018481525090506001600460003373ffffffffffffffffffffffffffffffffffffffff1673ffffffffffffffffffffffffffffffffffffffff16815260200190815260200160002060006101000a81548160ff0219169083151502179055508060066000848152602001908152602001600020600082015181600001556020820151816001015560408201518160020190805190602001906115eb929190611e37565b506060820151816003019080519060200190611608929190611e37565b506080820151816004019080519060200190611625929190611e37565b5090505080600860003373ffffffffffffffffffffffffffffffffffffffff1673ffffffffffffffffffffffffffffffffffffffff16815260200190815260200160002060008201518160000155602082015181600101556040820151816002019080519060200190611699929190611e37565b5060608201518160030190805190602001906116b6929190611e37565b5060808201518160040190805190602001906116d3929190611e37565b509050506116e033611d75565b7f4f19fa79ec7c3c0f1adeabf1edb350ccfb28c722e55bcb2be54b16d81a337b11858585604051611713939291906124c5565b60405180910390a1505050505050565b6005602052806000526040600020600091509050806000015490806001015490806002018054611752906127ce565b80601f016020809104026020016040519081016040528092919081815260200182805461177e906127ce565b80156117cb5780601f106117a0576101008083540402835291602001916117cb565b820191906000526020600020905b8154815290600101906020018083116117ae57829003601f168201915b5050505050908060030180546117e0906127ce565b80601f016020809104026020016040519081016040528092919081815260200182805461180c906127ce565b80156118595780601f1061182e57610100808354040283529160200191611859565b820191906000526020600020905b81548152906001019060200180831161183c57829003601f168201915b50505050509080600401805461186e906127ce565b80601f016020809104026020016040519081016040528092919081815260200182805461189a906127ce565b80156118e75780601f106118bc576101008083540402835291602001916118e7565b820191906000526020600020905b8154815290600101906020018083116118ca57829003601f168201915b5050505050908060050180546118fc906127ce565b80601f0160208091040260200160405190810160405280929190818152602001828054611928906127ce565b80156119755780601f1061194a57610100808354040283529160200191611975565b820191906000526020600020905b81548152906001019060200180831161195857829003601f168201915b5050505050908060060160009054906101000a900460ff1690806007016040518060400160405290816000820180546119ad906127ce565b80601f01602080910402602001604051908101604052809291908181526020018280546119d9906127ce565b8015611a265780601f106119fb57610100808354040283529160200191611a26565b820191906000526020600020905b815481529060010190602001808311611a0957829003601f168201915b50505050508152602001600182018054611a3f906127ce565b80601f0160208091040260200160405190810160405280929190818152602001828054611a6b906127ce565b8015611ab85780601f10611a8d57610100808354040283529160200191611ab8565b820191906000526020600020905b815481529060010190602001808311611a9b57829003601f168201915b505050505081525050905088565b81600b6000838152602001908152602001600020819055506000600660008381526020019081526020016000206040518060a00160405290816000820154815260200160018201548152602001600282018054611b22906127ce565b80601f0160208091040260200160405190810160405280929190818152602001828054611b4e906127ce565b8015611b9b5780601f10611b7057610100808354040283529160200191611b9b565b820191906000526020600020905b815481529060010190602001808311611b7e57829003601f168201915b50505050508152602001600382018054611bb4906127ce565b80601f0160208091040260200160405190810160405280929190818152602001828054611be0906127ce565b8015611c2d5780601f10611c0257610100808354040283529160200191611c2d565b820191906000526020600020905b815481529060010190602001808311611c1057829003601f168201915b50505050508152602001600482018054611c46906127ce565b80601f0160208091040260200160405190810160405280929190818152602001828054611c72906127ce565b8015611cbf5780601f10611c9457610100808354040283529160200191611cbf565b820191906000526020600020905b815481529060010190602001808311611ca257829003601f168201915b505050505081525050905080600c600085815260200190815260200160002060008201518160000155602082015181600101556040820151816002019080519060200190611d0e929190611e37565b506060820151816003019080519060200190611d2b929190611e37565b506080820151816004019080519060200190611d48929190611e37565b50905050505050565b6001816000016000828254019250508190555050565b600081600001549050919050565b611e0b81604051602401611d89919061246d565b6040516020818303038152906040527f2c2ecbc2000000000000000000000000000000000000000000000000000000007bffffffffffffffffffffffffffffffffffffffffffffffffffffffff19166020820180517bffffffffffffffffffffffffffffffffffffffffffffffffffffffff8381831617835250505050611e0e565b50565b60008151905060006a636f6e736f6c652e6c6f679050602083016000808483855afa5050505050565b828054611e43906127ce565b90600052602060002090601f016020900481019282611e655760008555611eac565b82601f10611e7e57805160ff1916838001178555611eac565b82800160010185558215611eac579182015b82811115611eab578251825591602001919060010190611e90565b5b509050611eb99190611eec565b5090565b6040518060a0016040528060008152602001600081526020016060815260200160608152602001606081525090565b5b80821115611f05576000816000905550600101611eed565b5090565b6000611f1c611f17846126ad565b612688565b905082815260208101848484011115611f3457600080fd5b611f3f84828561278c565b509392505050565b600081359050611f5681612918565b92915050565b600082601f830112611f6d57600080fd5b8135611f7d848260208601611f09565b91505092915050565b600081359050611f958161292f565b92915050565b600060208284031215611fad57600080fd5b6000611fbb84828501611f47565b91505092915050565b60008060408385031215611fd757600080fd5b600083013567ffffffffffffffff811115611ff157600080fd5b611ffd85828601611f5c565b925050602083013567ffffffffffffffff81111561201a57600080fd5b61202685828601611f5c565b9150509250929050565b60006020828403121561204257600080fd5b600061205084828501611f86565b91505092915050565b6000806000806080858703121561206f57600080fd5b600061207d87828801611f86565b945050602085013567ffffffffffffffff81111561209a57600080fd5b6120a687828801611f5c565b935050604085013567ffffffffffffffff8111156120c357600080fd5b6120cf87828801611f5c565b925050606085013567ffffffffffffffff8111156120ec57600080fd5b6120f887828801611f5c565b91505092959194509250565b600080600080600080600060e0888a03121561211f57600080fd5b600061212d8a828b01611f86565b975050602088013567ffffffffffffffff81111561214a57600080fd5b6121568a828b01611f5c565b965050604088013567ffffffffffffffff81111561217357600080fd5b61217f8a828b01611f5c565b955050606088013567ffffffffffffffff81111561219c57600080fd5b6121a88a828b01611f5c565b945050608088013567ffffffffffffffff8111156121c557600080fd5b6121d18a828b01611f5c565b93505060a088013567ffffffffffffffff8111156121ee57600080fd5b6121fa8a828b01611f5c565b92505060c088013567ffffffffffffffff81111561221757600080fd5b6122238a828b01611f5c565b91505092959891949750929550565b6000806040838503121561224557600080fd5b600061225385828601611f86565b925050602061226485828601611f86565b9150509250929050565b600061227a83836123cb565b905092915050565b61228b81612744565b82525050565b600061229c826126ee565b6122a68185612711565b9350836020820285016122b8856126de565b8060005b858110156122f457848403895281516122d5858261226e565b94506122e083612704565b925060208a019950506001810190506122bc565b50829750879550505050505092915050565b61230f81612756565b82525050565b6000612320826126f9565b61232a8185612722565b935061233a81856020860161279b565b61234381612907565b840191505092915050565b6000612359826126f9565b6123638185612733565b935061237381856020860161279b565b61237c81612907565b840191505092915050565b600060408301600083015184820360008601526123a48282612315565b915050602083015184820360208601526123be8282612315565b9150508091505092915050565b600060a0830160008301516123e3600086018261244f565b5060208301516123f6602086018261244f565b506040830151848203604086015261240e8282612315565b915050606083015184820360608601526124288282612315565b915050608083015184820360808601526124428282612315565b9150508091505092915050565b61245881612782565b82525050565b61246781612782565b82525050565b60006020820190506124826000830184612282565b92915050565b600060208201905081810360008301526124a28184612291565b905092915050565b60006020820190506124bf6000830184612306565b92915050565b600060608201905081810360008301526124df818661234e565b905081810360208301526124f3818561234e565b90508181036040830152612507818461234e565b9050949350505050565b6000602082019050612526600083018461245e565b92915050565b6000608082019050612541600083018761245e565b61254e6020830186612282565b8181036040830152612560818561234e565b90508181036060830152612574818461234e565b905095945050505050565b600060a082019050612594600083018861245e565b6125a1602083018761245e565b81810360408301526125b3818661234e565b905081810360608301526125c7818561234e565b905081810360808301526125db818461234e565b90509695505050505050565b6000610100820190506125fd600083018b61245e565b61260a602083018a61245e565b818103604083015261261c818961234e565b90508181036060830152612630818861234e565b90508181036080830152612644818761234e565b905081810360a0830152612658818661234e565b905061266760c0830185612306565b81810360e08301526126798184612387565b90509998505050505050505050565b60006126926126a3565b905061269e8282612800565b919050565b6000604051905090565b600067ffffffffffffffff8211156126c8576126c76128d8565b5b6126d182612907565b9050602081019050919050565b6000819050602082019050919050565b600081519050919050565b600081519050919050565b6000602082019050919050565b600082825260208201905092915050565b600082825260208201905092915050565b600082825260208201905092915050565b600061274f82612762565b9050919050565b60008115159050919050565b600073ffffffffffffffffffffffffffffffffffffffff82169050919050565b6000819050919050565b82818337600083830152505050565b60005b838110156127b957808201518184015260208101905061279e565b838111156127c8576000848401525b50505050565b600060028204905060018216806127e657607f821691505b602082108114156127fa576127f96128a9565b5b50919050565b61280982612907565b810181811067ffffffffffffffff82111715612828576128276128d8565b5b80604052505050565b600061283c82612782565b91507fffffffffffffffffffffffffffffffffffffffffffffffffffffffffffffffff82141561286f5761286e61287a565b5b600182019050919050565b7f4e487b7100000000000000000000000000000000000000000000000000000000600052601160045260246000fd5b7f4e487b7100000000000000000000000000000000000000000000000000000000600052602260045260246000fd5b7f4e487b7100000000000000000000000000000000000000000000000000000000600052604160045260246000fd5b6000601f19601f8301169050919050565b61292181612744565b811461292c57600080fd5b50565b61293881612782565b811461294357600080fd5b5056fea2646970667358221220e7f693707bbd9c65ac66a1a084b103b43194ca9bd9c6f366536755b03a04da3d64736f6c63430008040033",
  "linkReferences": {},
  "deployedLinkReferences": {}
}