{
  "_format": "hh-sol-artifact-1",
  "contractName": "RideSharing",
  "sourceName": "contracts/Ridesharing.sol",
  "abi": [
    {
      "anonymous": false,
      "inputs": [
        {
          "indexed": false,
          "internalType": "uint256",
          "name": "driverId",
          "type": "uint256"
        },
        {
          "indexed": false,
          "internalType": "string",
          "name": "name",
          "type": "string"
        },
        {
          "indexed": false,
          "internalType": "string",
          "name": "nic",
          "type": "string"
        },
        {
          "indexed": false,
          "internalType": "string",
          "name": "regNum",
          "type": "string"
        }
      ],
      "name": "registered",
      "type": "event"
    },
    {
      "inputs": [
        {
          "internalType": "uint256",
          "name": "",
          "type": "uint256"
        }
      ],
      "name": "RideIDTodriverId",
      "outputs": [
        {
          "internalType": "uint256",
          "name": "",
          "type": "uint256"
        }
      ],
      "stateMutability": "view",
      "type": "function"
    },
    {
      "inputs": [
        {
          "internalType": "address",
          "name": "",
          "type": "address"
        }
      ],
      "name": "addressToDriver",
      "outputs": [
        {
          "internalType": "uint256",
          "name": "Id",
          "type": "uint256"
        },
        {
          "internalType": "string",
          "name": "name",
          "type": "string"
        },
        {
          "internalType": "string",
          "name": "nic",
          "type": "string"
        },
        {
          "internalType": "string",
          "name": "email",
          "type": "string"
        },
        {
          "internalType": "string",
          "name": "cellno",
          "type": "string"
        },
        {
          "internalType": "string",
          "name": "LiscenceNo",
          "type": "string"
        },
        {
          "internalType": "bool",
          "name": "isRegistered",
          "type": "bool"
        },
        {
          "components": [
            {
              "internalType": "string",
              "name": "regNum",
              "type": "string"
            },
            {
              "internalType": "string",
              "name": "modelName",
              "type": "string"
            }
          ],
          "internalType": "struct RideSharing.Car",
          "name": "car",
          "type": "tuple"
        }
      ],
      "stateMutability": "view",
      "type": "function"
    },
    {
      "inputs": [
        {
          "internalType": "address",
          "name": "",
          "type": "address"
        }
      ],
      "name": "addressToRider",
      "outputs": [
        {
          "internalType": "uint256",
          "name": "Id",
          "type": "uint256"
        },
        {
          "internalType": "string",
          "name": "name",
          "type": "string"
        },
        {
          "internalType": "string",
          "name": "email",
          "type": "string"
        },
        {
          "internalType": "string",
          "name": "cellno",
          "type": "string"
        }
      ],
      "stateMutability": "view",
      "type": "function"
    },
    {
      "inputs": [
        {
          "internalType": "string",
          "name": "sourceLong",
          "type": "string"
        },
        {
          "internalType": "string",
          "name": "sourceLat",
          "type": "string"
        },
        {
          "internalType": "string",
          "name": "destLong",
          "type": "string"
        },
        {
          "internalType": "string",
          "name": "destLat",
          "type": "string"
        },
        {
          "internalType": "string",
          "name": "startTime",
          "type": "string"
        },
        {
          "internalType": "uint256",
          "name": "seats",
          "type": "uint256"
        }
      ],
      "name": "createRide",
      "outputs": [],
      "stateMutability": "nonpayable",
      "type": "function"
    },
    {
      "inputs": [
        {
          "internalType": "address",
          "name": "",
          "type": "address"
        }
      ],
      "name": "driverIsRegistered",
      "outputs": [
        {
          "internalType": "bool",
          "name": "",
          "type": "bool"
        }
      ],
      "stateMutability": "view",
      "type": "function"
    },
    {
      "inputs": [
        {
          "internalType": "address",
          "name": "_driver",
          "type": "address"
        }
      ],
      "name": "getDriverByAddress",
      "outputs": [
        {
          "internalType": "uint256",
          "name": "",
          "type": "uint256"
        }
      ],
      "stateMutability": "view",
      "type": "function"
    },
    {
      "inputs": [
        {
          "internalType": "uint256",
          "name": "rideId",
          "type": "uint256"
        }
      ],
      "name": "getRidersByRideId",
      "outputs": [
        {
          "components": [
            {
              "internalType": "uint256",
              "name": "Id",
              "type": "uint256"
            },
            {
              "internalType": "string",
              "name": "name",
              "type": "string"
            },
            {
              "internalType": "string",
              "name": "email",
              "type": "string"
            },
            {
              "internalType": "string",
              "name": "cellno",
              "type": "string"
            }
          ],
          "internalType": "struct RideSharing.Rider[]",
          "name": "",
          "type": "tuple[]"
        }
      ],
      "stateMutability": "view",
      "type": "function"
    },
    {
      "inputs": [
        {
          "internalType": "address",
          "name": "user",
          "type": "address"
        }
      ],
      "name": "getUserType",
      "outputs": [
        {
          "internalType": "uint256",
          "name": "",
          "type": "uint256"
        }
      ],
      "stateMutability": "view",
      "type": "function"
    },
    {
      "inputs": [
        {
          "internalType": "uint256",
          "name": "",
          "type": "uint256"
        }
      ],
      "name": "idToDriver",
      "outputs": [
        {
          "internalType": "uint256",
          "name": "Id",
          "type": "uint256"
        },
        {
          "internalType": "string",
          "name": "name",
          "type": "string"
        },
        {
          "internalType": "string",
          "name": "nic",
          "type": "string"
        },
        {
          "internalType": "string",
          "name": "email",
          "type": "string"
        },
        {
          "internalType": "string",
          "name": "cellno",
          "type": "string"
        },
        {
          "internalType": "string",
          "name": "LiscenceNo",
          "type": "string"
        },
        {
          "internalType": "bool",
          "name": "isRegistered",
          "type": "bool"
        },
        {
          "components": [
            {
              "internalType": "string",
              "name": "regNum",
              "type": "string"
            },
            {
              "internalType": "string",
              "name": "modelName",
              "type": "string"
            }
          ],
          "internalType": "struct RideSharing.Car",
          "name": "car",
          "type": "tuple"
        }
      ],
      "stateMutability": "view",
      "type": "function"
    },
    {
      "inputs": [
        {
          "internalType": "uint256",
          "name": "",
          "type": "uint256"
        }
      ],
      "name": "idToRide",
      "outputs": [
        {
          "internalType": "uint256",
          "name": "rideId",
          "type": "uint256"
        },
        {
          "internalType": "address",
          "name": "creator",
          "type": "address"
        },
        {
          "internalType": "string",
          "name": "StartTime",
          "type": "string"
        },
        {
          "internalType": "uint256",
          "name": "seats",
          "type": "uint256"
        },
        {
          "internalType": "string",
          "name": "sourceLong",
          "type": "string"
        },
        {
          "internalType": "string",
          "name": "sourceLat",
          "type": "string"
        },
        {
          "internalType": "string",
          "name": "destLong",
          "type": "string"
        },
        {
          "internalType": "string",
          "name": "destLat",
          "type": "string"
        }
      ],
      "stateMutability": "view",
      "type": "function"
    },
    {
      "inputs": [
        {
          "internalType": "uint256",
          "name": "",
          "type": "uint256"
        }
      ],
      "name": "idToRider",
      "outputs": [
        {
          "internalType": "uint256",
          "name": "Id",
          "type": "uint256"
        },
        {
          "internalType": "string",
          "name": "name",
          "type": "string"
        },
        {
          "internalType": "string",
          "name": "email",
          "type": "string"
        },
        {
          "internalType": "string",
          "name": "cellno",
          "type": "string"
        }
      ],
      "stateMutability": "view",
      "type": "function"
    },
    {
      "inputs": [
        {
          "internalType": "uint256",
          "name": "rideId",
          "type": "uint256"
        },
        {
          "internalType": "uint256",
          "name": "riderId",
          "type": "uint256"
        }
      ],
      "name": "joinRide",
      "outputs": [],
      "stateMutability": "nonpayable",
      "type": "function"
    },
    {
      "inputs": [
        {
          "internalType": "string",
          "name": "_name",
          "type": "string"
        },
        {
          "internalType": "string",
          "name": "_nic",
          "type": "string"
        },
        {
          "internalType": "string",
          "name": "_email",
          "type": "string"
        },
        {
          "internalType": "string",
          "name": "_cellno",
          "type": "string"
        },
        {
          "internalType": "string",
          "name": "_regNum",
          "type": "string"
        },
        {
          "internalType": "string",
          "name": "_modelName",
          "type": "string"
        },
        {
          "internalType": "string",
          "name": "_LiscenceNo",
          "type": "string"
        }
      ],
      "name": "registerForDriver",
      "outputs": [],
      "stateMutability": "nonpayable",
      "type": "function"
    },
    {
      "inputs": [
        {
          "internalType": "string",
          "name": "_name",
          "type": "string"
        },
        {
          "internalType": "string",
          "name": "_email",
          "type": "string"
        },
        {
          "internalType": "string",
          "name": "_cellno",
          "type": "string"
        }
      ],
      "name": "registerForRider",
      "outputs": [],
      "stateMutability": "nonpayable",
      "type": "function"
    },
    {
      "inputs": [
        {
          "internalType": "uint256",
          "name": "",
          "type": "uint256"
        }
      ],
      "name": "riderIdtorideId",
      "outputs": [
        {
          "internalType": "uint256",
          "name": "",
          "type": "uint256"
        }
      ],
      "stateMutability": "view",
      "type": "function"
    },
    {
      "inputs": [
        {
          "internalType": "address",
          "name": "",
          "type": "address"
        }
      ],
      "name": "riderIsRegistered",
      "outputs": [
        {
          "internalType": "bool",
          "name": "",
          "type": "bool"
        }
      ],
      "stateMutability": "view",
      "type": "function"
    }
  ],
  "bytecode": "0x608060405234801561001057600080fd5b50612f8c806100206000396000f3fe608060405234801561001057600080fd5b50600436106101005760003560e01c8063bbe3803a11610097578063e563eada11610066578063e563eada1461031a578063e656b5781461034a578063ec7a52201461037d578063f2c5c2f1146103b457610100565b8063bbe3803a14610267578063c092e39914610297578063c29cc99a146102ce578063e147d787146102ea57610100565b80638b3f863f116100d35780638b3f863f146101bb5780639e473a47146101eb578063a9b6bbde1461021b578063ba1ac3771461024b57610100565b806305c41e0e146101055780631840110a14610138578063472b06c01461016857806366ec451c14610184575b600080fd5b61011f600480360381019061011a9190612831565b6103d0565b60405161012f9493929190612b96565b60405180910390f35b610152600480360381019061014d9190612831565b610598565b60405161015f9190612ada565b60405180910390f35b610182600480360381019061017d9190612553565b6105b0565b005b61019e60048036038101906101999190612831565b6107ae565b6040516101b2989796959493929190612af5565b60405180910390f35b6101d560048036038101906101d0919061252a565b610abe565b6040516101e29190612ada565b60405180910390f35b6102056004803603810190610200919061252a565b610cf4565b6040516102129190612abf565b60405180910390f35b6102356004803603810190610230919061252a565b610d14565b6040516102429190612ada565b60405180910390f35b610265600480360381019061026091906125ea565b610d65565b005b610281600480360381019061027c9190612831565b6110db565b60405161028e9190612ada565b60405180910390f35b6102b160048036038101906102ac919061252a565b6110f3565b6040516102c5989796959493929190612bf0565b60405180910390f35b6102e860048036038101906102e39190612730565b61151e565b005b61030460048036038101906102ff919061252a565b61171a565b6040516103119190612abf565b60405180910390f35b610334600480360381019061032f9190612831565b61173a565b6040516103419190612a9d565b60405180910390f35b610364600480360381019061035f919061252a565b611a7d565b6040516103749493929190612b96565b60405180910390f35b61039760048036038101906103929190612831565b611c45565b6040516103ab989796959493929190612bf0565b60405180910390f35b6103ce60048036038101906103c9919061285a565b612070565b005b60066020528060005260406000206000915090508060000154908060010180546103f990612dde565b80601f016020809104026020016040519081016040528092919081815260200182805461042590612dde565b80156104725780601f1061044757610100808354040283529160200191610472565b820191906000526020600020905b81548152906001019060200180831161045557829003601f168201915b50505050509080600201805461048790612dde565b80601f01602080910402602001604051908101604052809291908181526020018280546104b390612dde565b80156105005780601f106104d557610100808354040283529160200191610500565b820191906000526020600020905b8154815290600101906020018083116104e357829003601f168201915b50505050509080600301805461051590612dde565b80601f016020809104026020016040519081016040528092919081815260200182805461054190612dde565b801561058e5780601f106105635761010080835404028352916020019161058e565b820191906000526020600020905b81548152906001019060200180831161057157829003601f168201915b5050505050905084565b600b6020528060005260406000206000915090505481565b6105ba60026122e7565b60006105c660026122fd565b9050600060405180608001604052808381526020018681526020018581526020018481525090506001600460003373ffffffffffffffffffffffffffffffffffffffff1673ffffffffffffffffffffffffffffffffffffffff16815260200190815260200160002060006101000a81548160ff021916908315150217905550806006600084815260200190815260200160002060008201518160000155602082015181600101908051906020019061067f9291906123cd565b50604082015181600201908051906020019061069c9291906123cd565b5060608201518160030190805190602001906106b99291906123cd565b5090505080600860003373ffffffffffffffffffffffffffffffffffffffff1673ffffffffffffffffffffffffffffffffffffffff1681526020019081526020016000206000820151816000015560208201518160010190805190602001906107239291906123cd565b5060408201518160020190805190602001906107409291906123cd565b50606082015181600301908051906020019061075d9291906123cd565b5090505061076a3361230b565b7f852badd8d9549940f759bddf24a998c9351f607aadc7335fdc595259565183ae8286868660405161079f9493929190612b96565b60405180910390a15050505050565b600a6020528060005260406000206000915090508060000154908060010160009054906101000a900473ffffffffffffffffffffffffffffffffffffffff16908060020180546107fd90612dde565b80601f016020809104026020016040519081016040528092919081815260200182805461082990612dde565b80156108765780601f1061084b57610100808354040283529160200191610876565b820191906000526020600020905b81548152906001019060200180831161085957829003601f168201915b50505050509080600301549080600401805461089190612dde565b80601f01602080910402602001604051908101604052809291908181526020018280546108bd90612dde565b801561090a5780601f106108df5761010080835404028352916020019161090a565b820191906000526020600020905b8154815290600101906020018083116108ed57829003601f168201915b50505050509080600501805461091f90612dde565b80601f016020809104026020016040519081016040528092919081815260200182805461094b90612dde565b80156109985780601f1061096d57610100808354040283529160200191610998565b820191906000526020600020905b81548152906001019060200180831161097b57829003601f168201915b5050505050908060060180546109ad90612dde565b80601f01602080910402602001604051908101604052809291908181526020018280546109d990612dde565b8015610a265780601f106109fb57610100808354040283529160200191610a26565b820191906000526020600020905b815481529060010190602001808311610a0957829003601f168201915b505050505090806007018054610a3b90612dde565b80601f0160208091040260200160405190810160405280929190818152602001828054610a6790612dde565b8015610ab45780601f10610a8957610100808354040283529160200191610ab4565b820191906000526020600020905b815481529060010190602001808311610a9757829003601f168201915b5050505050905088565b6000806000600860008573ffffffffffffffffffffffffffffffffffffffff1673ffffffffffffffffffffffffffffffffffffffff16815260200190815260200160002060405180608001604052908160008201548152602001600182018054610b2790612dde565b80601f0160208091040260200160405190810160405280929190818152602001828054610b5390612dde565b8015610ba05780601f10610b7557610100808354040283529160200191610ba0565b820191906000526020600020905b815481529060010190602001808311610b8357829003601f168201915b50505050508152602001600282018054610bb990612dde565b80601f0160208091040260200160405190810160405280929190818152602001828054610be590612dde565b8015610c325780601f10610c0757610100808354040283529160200191610c32565b820191906000526020600020905b815481529060010190602001808311610c1557829003601f168201915b50505050508152602001600382018054610c4b90612dde565b80601f0160208091040260200160405190810160405280929190818152602001828054610c7790612dde565b8015610cc45780601f10610c9957610100808354040283529160200191610cc4565b820191906000526020600020905b815481529060010190602001808311610ca757829003601f168201915b5050505050815250509050600081600001511415610ce55760019150610cea565b600091505b8192505050919050565b60036020528060005260406000206000915054906101000a900460ff1681565b600080600760008473ffffffffffffffffffffffffffffffffffffffff1673ffffffffffffffffffffffffffffffffffffffff16815260200190815260200160002090508060000154915050919050565b60006040518060400160405280858152602001848152509050610d8860006122e7565b6000610d9460006122fd565b905060006040518061010001604052808381526020018b81526020018a81526020018981526020018881526020018581526020016001151581526020018481525090506001600360003373ffffffffffffffffffffffffffffffffffffffff1673ffffffffffffffffffffffffffffffffffffffff16815260200190815260200160002060006101000a81548160ff0219169083151502179055508060056000848152602001908152602001600020600082015181600001556020820151816001019080519060200190610e699291906123cd565b506040820151816002019080519060200190610e869291906123cd565b506060820151816003019080519060200190610ea39291906123cd565b506080820151816004019080519060200190610ec09291906123cd565b5060a0820151816005019080519060200190610edd9291906123cd565b5060c08201518160060160006101000a81548160ff02191690831515021790555060e0820151816007016000820151816000019080519060200190610f239291906123cd565b506020820151816001019080519060200190610f409291906123cd565b50505090505080600760003373ffffffffffffffffffffffffffffffffffffffff1673ffffffffffffffffffffffffffffffffffffffff168152602001908152602001600020600082015181600001556020820151816001019080519060200190610fac9291906123cd565b506040820151816002019080519060200190610fc99291906123cd565b506060820151816003019080519060200190610fe69291906123cd565b5060808201518160040190805190602001906110039291906123cd565b5060a08201518160050190805190602001906110209291906123cd565b5060c08201518160060160006101000a81548160ff02191690831515021790555060e08201518160070160008201518160000190805190602001906110669291906123cd565b5060208201518160010190805190602001906110839291906123cd565b5050509050506110923361230b565b7f852badd8d9549940f759bddf24a998c9351f607aadc7335fdc595259565183ae828b8b896040516110c79493929190612b96565b60405180910390a150505050505050505050565b60096020528060005260406000206000915090505481565b600760205280600052604060002060009150905080600001549080600101805461111c90612dde565b80601f016020809104026020016040519081016040528092919081815260200182805461114890612dde565b80156111955780601f1061116a57610100808354040283529160200191611195565b820191906000526020600020905b81548152906001019060200180831161117857829003601f168201915b5050505050908060020180546111aa90612dde565b80601f01602080910402602001604051908101604052809291908181526020018280546111d690612dde565b80156112235780601f106111f857610100808354040283529160200191611223565b820191906000526020600020905b81548152906001019060200180831161120657829003601f168201915b50505050509080600301805461123890612dde565b80601f016020809104026020016040519081016040528092919081815260200182805461126490612dde565b80156112b15780601f10611286576101008083540402835291602001916112b1565b820191906000526020600020905b81548152906001019060200180831161129457829003601f168201915b5050505050908060040180546112c690612dde565b80601f01602080910402602001604051908101604052809291908181526020018280546112f290612dde565b801561133f5780601f106113145761010080835404028352916020019161133f565b820191906000526020600020905b81548152906001019060200180831161132257829003601f168201915b50505050509080600501805461135490612dde565b80601f016020809104026020016040519081016040528092919081815260200182805461138090612dde565b80156113cd5780601f106113a2576101008083540402835291602001916113cd565b820191906000526020600020905b8154815290600101906020018083116113b057829003601f168201915b5050505050908060060160009054906101000a900460ff16908060070160405180604001604052908160008201805461140590612dde565b80601f016020809104026020016040519081016040528092919081815260200182805461143190612dde565b801561147e5780601f106114535761010080835404028352916020019161147e565b820191906000526020600020905b81548152906001019060200180831161146157829003601f168201915b5050505050815260200160018201805461149790612dde565b80601f01602080910402602001604051908101604052809291908181526020018280546114c390612dde565b80156115105780601f106114e557610100808354040283529160200191611510565b820191906000526020600020905b8154815290600101906020018083116114f357829003601f168201915b505050505081525050905088565b60011515600360003373ffffffffffffffffffffffffffffffffffffffff1673ffffffffffffffffffffffffffffffffffffffff16815260200190815260200160002060009054906101000a900460ff1615151461157b57600080fd5b600061158633610d14565b905061159260016122e7565b600061159e60016122fd565b905060006040518061010001604052808381526020013373ffffffffffffffffffffffffffffffffffffffff1681526020018681526020018581526020018a815260200189815260200188815260200187815250905080600a60008481526020019081526020016000206000820151816000015560208201518160010160006101000a81548173ffffffffffffffffffffffffffffffffffffffff021916908373ffffffffffffffffffffffffffffffffffffffff16021790555060408201518160020190805190602001906116759291906123cd565b5060608201518160030155608082015181600401908051906020019061169c9291906123cd565b5060a08201518160050190805190602001906116b99291906123cd565b5060c08201518160060190805190602001906116d69291906123cd565b5060e08201518160070190805190602001906116f39291906123cd565b50905050826009600084815260200190815260200160002081905550505050505050505050565b60046020528060005260406000206000915054906101000a900460ff1681565b60606000806000600190505b61175060016122fd565b81116117935784600b600083815260200190815260200160002054141561178057828061177c90612e41565b9350505b808061178b90612e41565b915050611746565b5060008267ffffffffffffffff8111156117d6577f4e487b7100000000000000000000000000000000000000000000000000000000600052604160045260246000fd5b60405190808252806020026020018201604052801561180f57816020015b6117fc612453565b8152602001906001900390816117f45790505b5090506000600190505b838111611a715785600b6000838152602001908152602001600020541415611a5e57600c60008281526020019081526020016000206040518060800160405290816000820154815260200160018201805461187390612dde565b80601f016020809104026020016040519081016040528092919081815260200182805461189f90612dde565b80156118ec5780601f106118c1576101008083540402835291602001916118ec565b820191906000526020600020905b8154815290600101906020018083116118cf57829003601f168201915b5050505050815260200160028201805461190590612dde565b80601f016020809104026020016040519081016040528092919081815260200182805461193190612dde565b801561197e5780601f106119535761010080835404028352916020019161197e565b820191906000526020600020905b81548152906001019060200180831161196157829003601f168201915b5050505050815260200160038201805461199790612dde565b80601f01602080910402602001604051908101604052809291908181526020018280546119c390612dde565b8015611a105780601f106119e557610100808354040283529160200191611a10565b820191906000526020600020905b8154815290600101906020018083116119f357829003601f168201915b505050505081525050828481518110611a52577f4e487b7100000000000000000000000000000000000000000000000000000000600052603260045260246000fd5b60200260200101819052505b8080611a6990612e41565b915050611819565b50809350505050919050565b6008602052806000526040600020600091509050806000015490806001018054611aa690612dde565b80601f0160208091040260200160405190810160405280929190818152602001828054611ad290612dde565b8015611b1f5780601f10611af457610100808354040283529160200191611b1f565b820191906000526020600020905b815481529060010190602001808311611b0257829003601f168201915b505050505090806002018054611b3490612dde565b80601f0160208091040260200160405190810160405280929190818152602001828054611b6090612dde565b8015611bad5780601f10611b8257610100808354040283529160200191611bad565b820191906000526020600020905b815481529060010190602001808311611b9057829003601f168201915b505050505090806003018054611bc290612dde565b80601f0160208091040260200160405190810160405280929190818152602001828054611bee90612dde565b8015611c3b5780601f10611c1057610100808354040283529160200191611c3b565b820191906000526020600020905b815481529060010190602001808311611c1e57829003601f168201915b5050505050905084565b6005602052806000526040600020600091509050806000015490806001018054611c6e90612dde565b80601f0160208091040260200160405190810160405280929190818152602001828054611c9a90612dde565b8015611ce75780601f10611cbc57610100808354040283529160200191611ce7565b820191906000526020600020905b815481529060010190602001808311611cca57829003601f168201915b505050505090806002018054611cfc90612dde565b80601f0160208091040260200160405190810160405280929190818152602001828054611d2890612dde565b8015611d755780601f10611d4a57610100808354040283529160200191611d75565b820191906000526020600020905b815481529060010190602001808311611d5857829003601f168201915b505050505090806003018054611d8a90612dde565b80601f0160208091040260200160405190810160405280929190818152602001828054611db690612dde565b8015611e035780601f10611dd857610100808354040283529160200191611e03565b820191906000526020600020905b815481529060010190602001808311611de657829003601f168201915b505050505090806004018054611e1890612dde565b80601f0160208091040260200160405190810160405280929190818152602001828054611e4490612dde565b8015611e915780601f10611e6657610100808354040283529160200191611e91565b820191906000526020600020905b815481529060010190602001808311611e7457829003601f168201915b505050505090806005018054611ea690612dde565b80601f0160208091040260200160405190810160405280929190818152602001828054611ed290612dde565b8015611f1f5780601f10611ef457610100808354040283529160200191611f1f565b820191906000526020600020905b815481529060010190602001808311611f0257829003601f168201915b5050505050908060060160009054906101000a900460ff169080600701604051806040016040529081600082018054611f5790612dde565b80601f0160208091040260200160405190810160405280929190818152602001828054611f8390612dde565b8015611fd05780601f10611fa557610100808354040283529160200191611fd0565b820191906000526020600020905b815481529060010190602001808311611fb357829003601f168201915b50505050508152602001600182018054611fe990612dde565b80601f016020809104026020016040519081016040528092919081815260200182805461201590612dde565b80156120625780601f1061203757610100808354040283529160200191612062565b820191906000526020600020905b81548152906001019060200180831161204557829003601f168201915b505050505081525050905088565b81600b600083815260200190815260200160002081905550600060066000838152602001908152602001600020604051806080016040529081600082015481526020016001820180546120c290612dde565b80601f01602080910402602001604051908101604052809291908181526020018280546120ee90612dde565b801561213b5780601f106121105761010080835404028352916020019161213b565b820191906000526020600020905b81548152906001019060200180831161211e57829003601f168201915b5050505050815260200160028201805461215490612dde565b80601f016020809104026020016040519081016040528092919081815260200182805461218090612dde565b80156121cd5780601f106121a2576101008083540402835291602001916121cd565b820191906000526020600020905b8154815290600101906020018083116121b057829003601f168201915b505050505081526020016003820180546121e690612dde565b80601f016020809104026020016040519081016040528092919081815260200182805461221290612dde565b801561225f5780601f106122345761010080835404028352916020019161225f565b820191906000526020600020905b81548152906001019060200180831161224257829003601f168201915b505050505081525050905080600c60008581526020019081526020016000206000820151816000015560208201518160010190805190602001906122a49291906123cd565b5060408201518160020190805190602001906122c19291906123cd565b5060608201518160030190805190602001906122de9291906123cd565b50905050505050565b6001816000016000828254019250508190555050565b600081600001549050919050565b6123a18160405160240161231f9190612a82565b6040516020818303038152906040527f2c2ecbc2000000000000000000000000000000000000000000000000000000007bffffffffffffffffffffffffffffffffffffffffffffffffffffffff19166020820180517bffffffffffffffffffffffffffffffffffffffffffffffffffffffff83818316178352505050506123a4565b50565b60008151905060006a636f6e736f6c652e6c6f679050602083016000808483855afa5050505050565b8280546123d990612dde565b90600052602060002090601f0160209004810192826123fb5760008555612442565b82601f1061241457805160ff1916838001178555612442565b82800160010185558215612442579182015b82811115612441578251825591602001919060010190612426565b5b50905061244f919061247b565b5090565b6040518060800160405280600081526020016060815260200160608152602001606081525090565b5b8082111561249457600081600090555060010161247c565b5090565b60006124ab6124a684612cbd565b612c98565b9050828152602081018484840111156124c357600080fd5b6124ce848285612d9c565b509392505050565b6000813590506124e581612f28565b92915050565b600082601f8301126124fc57600080fd5b813561250c848260208601612498565b91505092915050565b60008135905061252481612f3f565b92915050565b60006020828403121561253c57600080fd5b600061254a848285016124d6565b91505092915050565b60008060006060848603121561256857600080fd5b600084013567ffffffffffffffff81111561258257600080fd5b61258e868287016124eb565b935050602084013567ffffffffffffffff8111156125ab57600080fd5b6125b7868287016124eb565b925050604084013567ffffffffffffffff8111156125d457600080fd5b6125e0868287016124eb565b9150509250925092565b600080600080600080600060e0888a03121561260557600080fd5b600088013567ffffffffffffffff81111561261f57600080fd5b61262b8a828b016124eb565b975050602088013567ffffffffffffffff81111561264857600080fd5b6126548a828b016124eb565b965050604088013567ffffffffffffffff81111561267157600080fd5b61267d8a828b016124eb565b955050606088013567ffffffffffffffff81111561269a57600080fd5b6126a68a828b016124eb565b945050608088013567ffffffffffffffff8111156126c357600080fd5b6126cf8a828b016124eb565b93505060a088013567ffffffffffffffff8111156126ec57600080fd5b6126f88a828b016124eb565b92505060c088013567ffffffffffffffff81111561271557600080fd5b6127218a828b016124eb565b91505092959891949750929550565b60008060008060008060c0878903121561274957600080fd5b600087013567ffffffffffffffff81111561276357600080fd5b61276f89828a016124eb565b965050602087013567ffffffffffffffff81111561278c57600080fd5b61279889828a016124eb565b955050604087013567ffffffffffffffff8111156127b557600080fd5b6127c189828a016124eb565b945050606087013567ffffffffffffffff8111156127de57600080fd5b6127ea89828a016124eb565b935050608087013567ffffffffffffffff81111561280757600080fd5b61281389828a016124eb565b92505060a061282489828a01612515565b9150509295509295509295565b60006020828403121561284357600080fd5b600061285184828501612515565b91505092915050565b6000806040838503121561286d57600080fd5b600061287b85828601612515565b925050602061288c85828601612515565b9150509250929050565b60006128a283836129f3565b905092915050565b6128b381612d54565b82525050565b60006128c482612cfe565b6128ce8185612d21565b9350836020820285016128e085612cee565b8060005b8581101561291c57848403895281516128fd8582612896565b945061290883612d14565b925060208a019950506001810190506128e4565b50829750879550505050505092915050565b61293781612d66565b82525050565b600061294882612d09565b6129528185612d32565b9350612962818560208601612dab565b61296b81612f17565b840191505092915050565b600061298182612d09565b61298b8185612d43565b935061299b818560208601612dab565b6129a481612f17565b840191505092915050565b600060408301600083015184820360008601526129cc828261293d565b915050602083015184820360208601526129e6828261293d565b9150508091505092915050565b6000608083016000830151612a0b6000860182612a64565b5060208301518482036020860152612a23828261293d565b91505060408301518482036040860152612a3d828261293d565b91505060608301518482036060860152612a57828261293d565b9150508091505092915050565b612a6d81612d92565b82525050565b612a7c81612d92565b82525050565b6000602082019050612a9760008301846128aa565b92915050565b60006020820190508181036000830152612ab781846128b9565b905092915050565b6000602082019050612ad4600083018461292e565b92915050565b6000602082019050612aef6000830184612a73565b92915050565b600061010082019050612b0b600083018b612a73565b612b18602083018a6128aa565b8181036040830152612b2a8189612976565b9050612b396060830188612a73565b8181036080830152612b4b8187612976565b905081810360a0830152612b5f8186612976565b905081810360c0830152612b738185612976565b905081810360e0830152612b878184612976565b90509998505050505050505050565b6000608082019050612bab6000830187612a73565b8181036020830152612bbd8186612976565b90508181036040830152612bd18185612976565b90508181036060830152612be58184612976565b905095945050505050565b600061010082019050612c06600083018b612a73565b8181036020830152612c18818a612976565b90508181036040830152612c2c8189612976565b90508181036060830152612c408188612976565b90508181036080830152612c548187612976565b905081810360a0830152612c688186612976565b9050612c7760c083018561292e565b81810360e0830152612c8981846129af565b90509998505050505050505050565b6000612ca2612cb3565b9050612cae8282612e10565b919050565b6000604051905090565b600067ffffffffffffffff821115612cd857612cd7612ee8565b5b612ce182612f17565b9050602081019050919050565b6000819050602082019050919050565b600081519050919050565b600081519050919050565b6000602082019050919050565b600082825260208201905092915050565b600082825260208201905092915050565b600082825260208201905092915050565b6000612d5f82612d72565b9050919050565b60008115159050919050565b600073ffffffffffffffffffffffffffffffffffffffff82169050919050565b6000819050919050565b82818337600083830152505050565b60005b83811015612dc9578082015181840152602081019050612dae565b83811115612dd8576000848401525b50505050565b60006002820490506001821680612df657607f821691505b60208210811415612e0a57612e09612eb9565b5b50919050565b612e1982612f17565b810181811067ffffffffffffffff82111715612e3857612e37612ee8565b5b80604052505050565b6000612e4c82612d92565b91507fffffffffffffffffffffffffffffffffffffffffffffffffffffffffffffffff821415612e7f57612e7e612e8a565b5b600182019050919050565b7f4e487b7100000000000000000000000000000000000000000000000000000000600052601160045260246000fd5b7f4e487b7100000000000000000000000000000000000000000000000000000000600052602260045260246000fd5b7f4e487b7100000000000000000000000000000000000000000000000000000000600052604160045260246000fd5b6000601f19601f8301169050919050565b612f3181612d54565b8114612f3c57600080fd5b50565b612f4881612d92565b8114612f5357600080fd5b5056fea26469706673582212201d429797d54613a50e923451080bfc9b14b62eee522bc0da2f6f07d6c4f02b1364736f6c63430008040033",
  "linkReferences": {},
  "deployedLinkReferences": {}
}